{
  "contractName": "Faucet",
  "abi": [
    {
      "inputs": [],
      "name": "numOfFunders",
      "outputs": [
        {
          "internalType": "uint256",
          "name": "",
          "type": "uint256"
        }
      ],
      "stateMutability": "view",
      "type": "function",
      "constant": true
    },
    {
      "inputs": [],
      "name": "owner",
      "outputs": [
        {
          "internalType": "address",
          "name": "",
          "type": "address"
        }
      ],
      "stateMutability": "view",
      "type": "function",
      "constant": true
    },
    {
      "inputs": [],
      "name": "testNum",
      "outputs": [
        {
          "internalType": "uint256",
          "name": "",
          "type": "uint256"
        }
      ],
      "stateMutability": "view",
      "type": "function",
      "constant": true
    },
    {
      "stateMutability": "payable",
      "type": "receive",
      "payable": true
    },
    {
      "inputs": [],
      "name": "emitLog",
      "outputs": [
        {
          "internalType": "bytes32",
          "name": "",
          "type": "bytes32"
        }
      ],
      "stateMutability": "pure",
      "type": "function",
      "constant": true
    },
    {
      "inputs": [],
      "name": "addFunds",
      "outputs": [],
      "stateMutability": "payable",
      "type": "function",
      "payable": true
    },
    {
      "inputs": [],
      "name": "testing",
      "outputs": [
        {
          "internalType": "uint256",
          "name": "",
          "type": "uint256"
        }
      ],
      "stateMutability": "pure",
      "type": "function",
      "constant": true
    },
    {
      "inputs": [],
      "name": "test1",
      "outputs": [],
      "stateMutability": "nonpayable",
      "type": "function"
    },
    {
      "inputs": [],
      "name": "test2",
      "outputs": [],
      "stateMutability": "nonpayable",
      "type": "function"
    },
    {
      "inputs": [
        {
          "internalType": "address",
          "name": "newOwner",
          "type": "address"
        }
      ],
      "name": "transferOwnership",
      "outputs": [],
      "stateMutability": "nonpayable",
      "type": "function"
    },
    {
      "inputs": [
        {
          "internalType": "uint256",
          "name": "withrawAmount",
          "type": "uint256"
        }
      ],
      "name": "withdraw",
      "outputs": [],
      "stateMutability": "nonpayable",
      "type": "function"
    },
    {
      "inputs": [],
      "name": "getAllFunders",
      "outputs": [
        {
          "internalType": "address[]",
          "name": "",
          "type": "address[]"
        }
      ],
      "stateMutability": "view",
      "type": "function",
      "constant": true
    },
    {
      "inputs": [
        {
          "internalType": "uint8",
          "name": "index",
          "type": "uint8"
        }
      ],
      "name": "getFunderAtIndex",
      "outputs": [
        {
          "internalType": "address",
          "name": "",
          "type": "address"
        }
      ],
      "stateMutability": "view",
      "type": "function",
      "constant": true
    }
  ],
  "bytecode": "0x608060405234801561001057600080fd5b50336000806101000a81548173ffffffffffffffffffffffffffffffffffffffff021916908373ffffffffffffffffffffffffffffffffffffffff1602179055506103e8600181905550610c84806100696000396000f3fe6080604052600436106100ab5760003560e01c80638da5cb5b116100645780638da5cb5b146101a1578063a26759cb146101cc578063ae28f1ed146101d6578063af7f2c9b14610201578063f2fde38b1461022c578063f42c13bf14610255576100b2565b80630a93cf33146100b75780632e1a7d4d146100f457806366e41cb71461011d5780636b59084d146101345780636fbbb55d1461014b5780638d03b10214610176576100b2565b366100b257005b600080fd5b3480156100c357600080fd5b506100de60048036038101906100d9919061080d565b610280565b6040516100eb919061087b565b60405180910390f35b34801561010057600080fd5b5061011b600480360381019061011691906108cc565b6102c0565b005b34801561012957600080fd5b50610132610357565b005b34801561014057600080fd5b506101496103e7565b005b34801561015757600080fd5b50610160610477565b60405161016d91906109b7565b60405180910390f35b34801561018257600080fd5b5061018b610571565b60405161019891906109e8565b60405180910390f35b3480156101ad57600080fd5b506101b661057a565b6040516101c3919061087b565b60405180910390f35b6101d461059e565b005b3480156101e257600080fd5b506101eb6106c1565b6040516101f891906109e8565b60405180910390f35b34801561020d57600080fd5b506102166106c7565b60405161022391906109e8565b60405180910390f35b34801561023857600080fd5b50610253600480360381019061024e9190610a2f565b6106cd565b005b34801561026157600080fd5b5061026a61079e565b6040516102779190610a75565b60405180910390f35b6000600460008360ff16815260200190815260200160002060009054906101000a900473ffffffffffffffffffffffffffffffffffffffff169050919050565b8067016345785d8a000081111561030c576040517f08c379a000000000000000000000000000000000000000000000000000000000815260040161030390610aed565b60405180910390fd5b3373ffffffffffffffffffffffffffffffffffffffff166108fc839081150290604051600060405180830381858888f19350505050158015610352573d6000803e3d6000fd5b505050565b60008054906101000a900473ffffffffffffffffffffffffffffffffffffffff1673ffffffffffffffffffffffffffffffffffffffff163373ffffffffffffffffffffffffffffffffffffffff16146103e5576040517f08c379a00000000000000000000000000000000000000000000000000000000081526004016103dc90610b59565b60405180910390fd5b565b60008054906101000a900473ffffffffffffffffffffffffffffffffffffffff1673ffffffffffffffffffffffffffffffffffffffff163373ffffffffffffffffffffffffffffffffffffffff1614610475576040517f08c379a000000000000000000000000000000000000000000000000000000000815260040161046c90610b59565b60405180910390fd5b565b6060600060025467ffffffffffffffff81111561049757610496610b79565b5b6040519080825280602002602001820160405280156104c55781602001602082028036833780820191505090505b50905060005b600254811015610569576004600082815260200190815260200160002060009054906101000a900473ffffffffffffffffffffffffffffffffffffffff1682828151811061051c5761051b610ba8565b5b602002602001019073ffffffffffffffffffffffffffffffffffffffff16908173ffffffffffffffffffffffffffffffffffffffff1681525050808061056190610c06565b9150506104cb565b508091505090565b60006004905090565b60008054906101000a900473ffffffffffffffffffffffffffffffffffffffff1681565b60003390506105ab6107c6565b50600360008273ffffffffffffffffffffffffffffffffffffffff1673ffffffffffffffffffffffffffffffffffffffff16815260200190815260200160002060009054906101000a900460ff166106be576001600360008373ffffffffffffffffffffffffffffffffffffffff1673ffffffffffffffffffffffffffffffffffffffff16815260200190815260200160002060006101000a81548160ff02191690831515021790555080600460006002600081548092919061066d90610c06565b91905055815260200190815260200160002060006101000a81548173ffffffffffffffffffffffffffffffffffffffff021916908373ffffffffffffffffffffffffffffffffffffffff1602179055505b50565b60015481565b60025481565b60008054906101000a900473ffffffffffffffffffffffffffffffffffffffff1673ffffffffffffffffffffffffffffffffffffffff163373ffffffffffffffffffffffffffffffffffffffff161461075b576040517f08c379a000000000000000000000000000000000000000000000000000000000815260040161075290610b59565b60405180910390fd5b806000806101000a81548173ffffffffffffffffffffffffffffffffffffffff021916908373ffffffffffffffffffffffffffffffffffffffff16021790555050565b60007f48656c6c6f20576f726c64000000000000000000000000000000000000000000905090565b60006064905090565b600080fd5b600060ff82169050919050565b6107ea816107d4565b81146107f557600080fd5b50565b600081359050610807816107e1565b92915050565b600060208284031215610823576108226107cf565b5b6000610831848285016107f8565b91505092915050565b600073ffffffffffffffffffffffffffffffffffffffff82169050919050565b60006108658261083a565b9050919050565b6108758161085a565b82525050565b6000602082019050610890600083018461086c565b92915050565b6000819050919050565b6108a981610896565b81146108b457600080fd5b50565b6000813590506108c6816108a0565b92915050565b6000602082840312156108e2576108e16107cf565b5b60006108f0848285016108b7565b91505092915050565b600081519050919050565b600082825260208201905092915050565b6000819050602082019050919050565b61092e8161085a565b82525050565b60006109408383610925565b60208301905092915050565b6000602082019050919050565b6000610964826108f9565b61096e8185610904565b935061097983610915565b8060005b838110156109aa5781516109918882610934565b975061099c8361094c565b92505060018101905061097d565b5085935050505092915050565b600060208201905081810360008301526109d18184610959565b905092915050565b6109e281610896565b82525050565b60006020820190506109fd60008301846109d9565b92915050565b610a0c8161085a565b8114610a1757600080fd5b50565b600081359050610a2981610a03565b92915050565b600060208284031215610a4557610a446107cf565b5b6000610a5384828501610a1a565b91505092915050565b6000819050919050565b610a6f81610a5c565b82525050565b6000602082019050610a8a6000830184610a66565b92915050565b600082825260208201905092915050565b7f4578636565646564207769746864726177616c206c696d697400000000000000600082015250565b6000610ad7601983610a90565b9150610ae282610aa1565b602082019050919050565b60006020820190508181036000830152610b0681610aca565b9050919050565b7f4f6e6c79206f776e657220686173206163636573730000000000000000000000600082015250565b6000610b43601583610a90565b9150610b4e82610b0d565b602082019050919050565b60006020820190508181036000830152610b7281610b36565b9050919050565b7f4e487b7100000000000000000000000000000000000000000000000000000000600052604160045260246000fd5b7f4e487b7100000000000000000000000000000000000000000000000000000000600052603260045260246000fd5b7f4e487b7100000000000000000000000000000000000000000000000000000000600052601160045260246000fd5b6000610c1182610896565b91507fffffffffffffffffffffffffffffffffffffffffffffffffffffffffffffffff8203610c4357610c42610bd7565b5b60018201905091905056fea2646970667358221220f22e6e8d6929565dbced1bc3627f4364912bbf1cae89bb8f8f6de6b3e0ff299064736f6c634300080f0033",
  "immutableReferences": {},
  "source": "// SPDX-License-Identifier: MIT\npragma solidity >=0.4.22 <0.9.0;\n\nimport \"./Owned.sol\";\nimport \"./Logger.sol\";\nimport \"./IFaucet.sol\";\n\ncontract Faucet is Owned, Logger, IFaucet {\n    //special function called when you make a transaction that doesnt specify function name to call\n    //ext func part of contract interface which means they can be called  via contracts and other transactions\n    receive() external payable {}\n\n    function emitLog() public pure override returns (bytes32) {\n        return \"Hello World\";\n    }\n\n    //nonce - a hahttps://github.com/Jerga99/faucet-coursesh that proves that the blockhas gone through pow\n    //8 bytes\n    uint256 public numOfFunders;\n\n    mapping(address => bool) private funders;\n    mapping(uint256 => address) private lutFunders;\n\n    modifier limitWithdraw(uint256 withdrawAmount) {\n        require(\n            withdrawAmount <= 100000000000000000,\n            \"Exceeded withdrawal limit\"\n        );\n        _;\n    }\n\n    //private accessible onlu within smart contract\n    //internal can be accessible within smart contract and also derived smart contract\n\n    function addFunds() external payable override {\n        address funder = msg.sender;\n\n        test3();\n\n        if (!funders[funder]) {\n            funders[funder] = true;\n            lutFunders[numOfFunders++] = funder;\n        }\n    }\n\n    function testing() external pure returns (uint256) {\n        return 2 + 2;\n    }\n\n    //view indicates that the fn will not alter the storage state in any way\n    //pure indicates that the fn will not even real the storage state - stricter\n    //pure, view - read only (no gas fee)\n    //transactions - gas fee\n    //to talk to node on netweork u can make json-rpc calls\n\n    function test1() external onlyOwner {\n        //only admin should have access to\n    }\n\n    function test2() external onlyOwner {\n        //only admin should have access to\n    }\n\n    function transferOwnership(address newOwner) external onlyOwner {\n        owner = newOwner;\n    }\n\n    function withdraw(uint256 withrawAmount)\n        external\n        override\n        limitWithdraw(withrawAmount)\n    {\n        payable(msg.sender).transfer(withrawAmount);\n    }\n\n    function getAllFunders() external view returns (address[] memory) {\n        address[] memory _funders = new address[](numOfFunders);\n\n        for (uint256 i = 0; i < numOfFunders; i++) {\n            _funders[i] = lutFunders[i];\n        }\n        return _funders;\n    }\n\n    function getFunderAtIndex(uint8 index) external view returns (address) {\n        return lutFunders[index];\n    }\n}\n",
  "sourcePath": "/home/ayush/blockchain/faucet/contracts/Faucet.sol",
  "compiler": {
    "name": "solc",
    "version": "0.8.15+commit.e14f2714.Emscripten.clang"
  },
  "schemaVersion": "3.4.8",
  "updatedAt": "2022-07-31T14:10:11.243Z",
  "networkType": "ethereum",
  "devdoc": {
    "kind": "dev",
    "methods": {},
    "version": 1
  },
  "userdoc": {
    "kind": "user",
    "methods": {},
    "version": 1
  }
}