{
  "contractName": "Storage",
  "abi": [
    {
      "inputs": [],
      "stateMutability": "nonpayable",
      "type": "constructor"
    },
    {
      "inputs": [],
      "name": "a",
      "outputs": [
        {
          "internalType": "uint8",
          "name": "",
          "type": "uint8"
        }
      ],
      "stateMutability": "view",
      "type": "function",
      "constant": true
    },
    {
      "inputs": [],
      "name": "b",
      "outputs": [
        {
          "internalType": "uint16",
          "name": "",
          "type": "uint16"
        }
      ],
      "stateMutability": "view",
      "type": "function",
      "constant": true
    },
    {
      "inputs": [],
      "name": "c",
      "outputs": [
        {
          "internalType": "address",
          "name": "",
          "type": "address"
        }
      ],
      "stateMutability": "view",
      "type": "function",
      "constant": true
    },
    {
      "inputs": [
        {
          "internalType": "uint256",
          "name": "",
          "type": "uint256"
        }
      ],
      "name": "cc",
      "outputs": [
        {
          "internalType": "uint256",
          "name": "",
          "type": "uint256"
        }
      ],
      "stateMutability": "view",
      "type": "function",
      "constant": true
    },
    {
      "inputs": [],
      "name": "e",
      "outputs": [
        {
          "internalType": "uint64",
          "name": "",
          "type": "uint64"
        }
      ],
      "stateMutability": "view",
      "type": "function",
      "constant": true
    },
    {
      "inputs": [],
      "name": "f",
      "outputs": [
        {
          "internalType": "uint256",
          "name": "",
          "type": "uint256"
        }
      ],
      "stateMutability": "view",
      "type": "function",
      "constant": true
    },
    {
      "inputs": [],
      "name": "g",
      "outputs": [
        {
          "internalType": "uint8",
          "name": "",
          "type": "uint8"
        }
      ],
      "stateMutability": "view",
      "type": "function",
      "constant": true
    },
    {
      "inputs": [],
      "name": "h",
      "outputs": [
        {
          "internalType": "uint256",
          "name": "",
          "type": "uint256"
        }
      ],
      "stateMutability": "view",
      "type": "function",
      "constant": true
    }
  ],
  "bytecode": "0x60806040526007600360006101000a81548160ff021916908360ff160217905550600a600360016101000a81548161ffff021916908361ffff160217905550737c98675d67bbd233619226a55c64b6a6ec9347936003806101000a81548173ffffffffffffffffffffffffffffffffffffffff021916908373ffffffffffffffffffffffffffffffffffffffff1602179055506001600360176101000a81548160ff021916908315150217905550600f600360186101000a81548167ffffffffffffffff021916908367ffffffffffffffff16021790555060c86004556028600560006101000a81548160ff021916908360ff16021790555061031560065534801561010a57600080fd5b506002600190806001815401808255809150506001900390600052602060002001600090919091909150556002600a908060018154018082558091505060019003906000526020600020016000909190919091505560026064908060018154018082558091505060019003906000526020600020016000909190919091505560046000806002815260200190815260200160002081905550600a6000806003815260200190815260200160002081905550606460016000737c98675d67bbd233619226a55c64b6a6ec93479373ffffffffffffffffffffffffffffffffffffffff1673ffffffffffffffffffffffffffffffffffffffff16815260200190815260200160002081905550610408806102236000396000f3fe608060405234801561001057600080fd5b50600436106100885760003560e01c8063c3da42b81161005b578063c3da42b814610105578063e2179b8e14610123578063eb366c1314610141578063ffae15ba1461017157610088565b80630dbe671f1461008d57806326121ff0146100ab5780634df7e3d0146100c9578063b8c9d365146100e7575b600080fd5b61009561018f565b6040516100a29190610253565b60405180910390f35b6100b36101a2565b6040516100c09190610287565b60405180910390f35b6100d16101a8565b6040516100de91906102bf565b60405180910390f35b6100ef6101bc565b6040516100fc9190610287565b60405180910390f35b61010d6101c2565b60405161011a919061031b565b60405180910390f35b61012b6101e6565b6040516101389190610253565b60405180910390f35b61015b60048036038101906101569190610367565b6101f9565b6040516101689190610287565b60405180910390f35b61017961021d565b60405161018691906103b7565b60405180910390f35b600360009054906101000a900460ff1681565b60045481565b600360019054906101000a900461ffff1681565b60065481565b60038054906101000a900473ffffffffffffffffffffffffffffffffffffffff1681565b600560009054906101000a900460ff1681565b6002818154811061020957600080fd5b906000526020600020016000915090505481565b600360189054906101000a900467ffffffffffffffff1681565b600060ff82169050919050565b61024d81610237565b82525050565b60006020820190506102686000830184610244565b92915050565b6000819050919050565b6102818161026e565b82525050565b600060208201905061029c6000830184610278565b92915050565b600061ffff82169050919050565b6102b9816102a2565b82525050565b60006020820190506102d460008301846102b0565b92915050565b600073ffffffffffffffffffffffffffffffffffffffff82169050919050565b6000610305826102da565b9050919050565b610315816102fa565b82525050565b6000602082019050610330600083018461030c565b92915050565b600080fd5b6103448161026e565b811461034f57600080fd5b50565b6000813590506103618161033b565b92915050565b60006020828403121561037d5761037c610336565b5b600061038b84828501610352565b91505092915050565b600067ffffffffffffffff82169050919050565b6103b181610394565b82525050565b60006020820190506103cc60008301846103a8565b9291505056fea26469706673582212200b481e42222f637675de0dbac2eac85b05c64a1b8f52a83cee2b2252b2b5303b64736f6c634300080f0033",
  "immutableReferences": {},
  "source": "// SPDX-License-Identifier: MIT\npragma solidity >=0.4.22 <0.9.0;\n\ncontract Storage {\n    mapping(uint256 => uint256) aa; //slot0\n    mapping(address => uint256) bb; //slot1\n    //keccak256(key . slot)\n\n    uint256[] public cc; // slot2\n    //keccak256(slot) + index of item\n\n    uint8 public a = 7; //1 byte\n    uint16 public b = 10; //2 bytes\n    address public c = 0x7C98675d67Bbd233619226A55C64B6A6eC934793; //20 bytes\n    bool d = true; //1 byte\n    uint64 public e = 15; //8 bytes\n\n    //32 bytes in 1 slot (slot 3 for the above ones)\n\n    uint256 public f = 200; //32 bytes => slot 4\n    uint8 public g = 40; //1 byte => slot 5\n    uint256 public h = 789; //32 bytes => slot 6\n\n    constructor() {\n        cc.push(1);\n        cc.push(10);\n        cc.push(100);\n\n        aa[2] = 4;\n        aa[3] = 10;\n        bb[0x7C98675d67Bbd233619226A55C64B6A6eC934793] = 100;\n    } //runs when contract is deployed\n}\n",
  "sourcePath": "/home/ayush/blockchain/faucet/contracts/Storage.sol",
  "compiler": {
    "name": "solc",
    "version": "0.8.15+commit.e14f2714.Emscripten.clang"
  },
  "schemaVersion": "3.4.8",
  "updatedAt": "2022-07-31T14:10:13.204Z",
  "networkType": "ethereum",
  "devdoc": {
    "kind": "dev",
    "methods": {},
    "version": 1
  },
  "userdoc": {
    "kind": "user",
    "methods": {},
    "version": 1
  }
}