{
  "contractName": "Test",
  "abi": [
    {
      "inputs": [
        {
          "internalType": "uint256",
          "name": "testNum",
          "type": "uint256"
        }
      ],
      "name": "test",
      "outputs": [
        {
          "internalType": "uint256",
          "name": "data",
          "type": "uint256"
        }
      ],
      "stateMutability": "pure",
      "type": "function",
      "constant": true
    },
    {
      "inputs": [],
      "name": "test2",
      "outputs": [
        {
          "internalType": "bytes32",
          "name": "data",
          "type": "bytes32"
        }
      ],
      "stateMutability": "pure",
      "type": "function",
      "constant": true
    }
  ],
  "bytecode": "0x608060405234801561001057600080fd5b506101e0806100206000396000f3fe608060405234801561001057600080fd5b50600436106100365760003560e01c806329e99f071461003b57806366e41cb71461006b575b600080fd5b6100556004803603810190610050919061011f565b610089565b604051610062919061015b565b60405180910390f35b6100736100c9565b604051610080919061018f565b60405180910390f35b6000609060405260006040518060600160405280600160ff168152602001600260ff168152602001600360ff168152509050602060900151915050919050565b60006040516468656c6c6f6000820152600081015191505090565b600080fd5b6000819050919050565b6100fc816100e9565b811461010757600080fd5b50565b600081359050610119816100f3565b92915050565b600060208284031215610135576101346100e4565b5b60006101438482850161010a565b91505092915050565b610155816100e9565b82525050565b6000602082019050610170600083018461014c565b92915050565b6000819050919050565b61018981610176565b82525050565b60006020820190506101a46000830184610180565b9291505056fea2646970667358221220cc1bdb373fbeaf733dc8178b7bd56ca323130ba334a039604ec7982f59b4dcd864736f6c634300080f0033",
  "immutableReferences": {},
  "source": "// SPDX-License-Identifier: MIT\npragma solidity >=0.4.22 <0.9.0;\n\ncontract Test {\n    function test(uint256 testNum) external pure returns (uint256 data) {\n        assembly {\n            mstore(0x40, 0x90)\n        }\n\n        uint8[3] memory items = [1, 2, 3];\n\n        assembly {\n            data := mload(add(0x90, 0x20))\n        }\n    }\n\n    function test2() external pure returns (bytes32 data) {\n        assembly {\n            let fmp := mload(0x40)\n\n            mstore(add(fmp, 0x00), 0x68656c6c6f)\n            data := mload(add(fmp, 0x00))\n        }\n    }\n}\n",
  "sourcePath": "/home/ayush/blockchain/faucet/contracts/Test.sol",
  "compiler": {
    "name": "solc",
    "version": "0.8.15+commit.e14f2714.Emscripten.clang"
  },
  "schemaVersion": "3.4.8",
  "updatedAt": "2022-07-31T14:10:15.033Z",
  "networkType": "ethereum",
  "devdoc": {
    "kind": "dev",
    "methods": {},
    "version": 1
  },
  "userdoc": {
    "kind": "user",
    "methods": {},
    "version": 1
  }
}